{
    "abi": [
        {
            "type": "constructor",
            "inputs": [],
            "stateMutability": "nonpayable"
        },
        {
            "type": "function",
            "name": "addToBlackList",
            "inputs": [
                {
                    "name": "user",
                    "type": "address",
                    "internalType": "address"
                }
            ],
            "outputs": [],
            "stateMutability": "nonpayable"
        },
        {
            "type": "function",
            "name": "approve",
            "inputs": [
                {
                    "name": "to",
                    "type": "address",
                    "internalType": "address"
                },
                {
                    "name": "tokenId",
                    "type": "uint256",
                    "internalType": "uint256"
                }
            ],
            "outputs": [],
            "stateMutability": "nonpayable"
        },
        {
            "type": "function",
            "name": "balanceOf",
            "inputs": [
                {
                    "name": "owner",
                    "type": "address",
                    "internalType": "address"
                }
            ],
            "outputs": [
                {
                    "name": "",
                    "type": "uint256",
                    "internalType": "uint256"
                }
            ],
            "stateMutability": "view"
        },
        {
            "type": "function",
            "name": "getApproved",
            "inputs": [
                {
                    "name": "tokenId",
                    "type": "uint256",
                    "internalType": "uint256"
                }
            ],
            "outputs": [
                {
                    "name": "",
                    "type": "address",
                    "internalType": "address"
                }
            ],
            "stateMutability": "view"
        },
        {
            "type": "function",
            "name": "isAddressBlackListed",
            "inputs": [
                {
                    "name": "user",
                    "type": "address",
                    "internalType": "address"
                }
            ],
            "outputs": [
                {
                    "name": "",
                    "type": "bool",
                    "internalType": "bool"
                }
            ],
            "stateMutability": "view"
        },
        {
            "type": "function",
            "name": "isApprovedForAll",
            "inputs": [
                {
                    "name": "owner",
                    "type": "address",
                    "internalType": "address"
                },
                {
                    "name": "operator",
                    "type": "address",
                    "internalType": "address"
                }
            ],
            "outputs": [
                {
                    "name": "",
                    "type": "bool",
                    "internalType": "bool"
                }
            ],
            "stateMutability": "view"
        },
        {
            "type": "function",
            "name": "mintNft",
            "inputs": [
                {
                    "name": "recipient",
                    "type": "address",
                    "internalType": "address"
                },
                {
                    "name": "tokenUri",
                    "type": "string",
                    "internalType": "string"
                }
            ],
            "outputs": [],
            "stateMutability": "nonpayable"
        },
        {
            "type": "function",
            "name": "name",
            "inputs": [],
            "outputs": [
                {
                    "name": "",
                    "type": "string",
                    "internalType": "string"
                }
            ],
            "stateMutability": "view"
        },
        {
            "type": "function",
            "name": "owner",
            "inputs": [],
            "outputs": [
                {
                    "name": "",
                    "type": "address",
                    "internalType": "address"
                }
            ],
            "stateMutability": "view"
        },
        {
            "type": "function",
            "name": "ownerOf",
            "inputs": [
                {
                    "name": "tokenId",
                    "type": "uint256",
                    "internalType": "uint256"
                }
            ],
            "outputs": [
                {
                    "name": "",
                    "type": "address",
                    "internalType": "address"
                }
            ],
            "stateMutability": "view"
        },
        {
            "type": "function",
            "name": "renounceOwnership",
            "inputs": [],
            "outputs": [],
            "stateMutability": "nonpayable"
        },
        {
            "type": "function",
            "name": "safeTransferFrom",
            "inputs": [
                {
                    "name": "from",
                    "type": "address",
                    "internalType": "address"
                },
                {
                    "name": "to",
                    "type": "address",
                    "internalType": "address"
                },
                {
                    "name": "tokenId",
                    "type": "uint256",
                    "internalType": "uint256"
                }
            ],
            "outputs": [],
            "stateMutability": "nonpayable"
        },
        {
            "type": "function",
            "name": "safeTransferFrom",
            "inputs": [
                {
                    "name": "from",
                    "type": "address",
                    "internalType": "address"
                },
                {
                    "name": "to",
                    "type": "address",
                    "internalType": "address"
                },
                {
                    "name": "tokenId",
                    "type": "uint256",
                    "internalType": "uint256"
                },
                {
                    "name": "data",
                    "type": "bytes",
                    "internalType": "bytes"
                }
            ],
            "outputs": [],
            "stateMutability": "nonpayable"
        },
        {
            "type": "function",
            "name": "setApprovalForAll",
            "inputs": [
                {
                    "name": "operator",
                    "type": "address",
                    "internalType": "address"
                },
                {
                    "name": "approved",
                    "type": "bool",
                    "internalType": "bool"
                }
            ],
            "outputs": [],
            "stateMutability": "nonpayable"
        },
        {
            "type": "function",
            "name": "supportsInterface",
            "inputs": [
                {
                    "name": "interfaceId",
                    "type": "bytes4",
                    "internalType": "bytes4"
                }
            ],
            "outputs": [
                {
                    "name": "",
                    "type": "bool",
                    "internalType": "bool"
                }
            ],
            "stateMutability": "view"
        },
        {
            "type": "function",
            "name": "symbol",
            "inputs": [],
            "outputs": [
                {
                    "name": "",
                    "type": "string",
                    "internalType": "string"
                }
            ],
            "stateMutability": "view"
        },
        {
            "type": "function",
            "name": "tokenURI",
            "inputs": [
                {
                    "name": "tokenId",
                    "type": "uint256",
                    "internalType": "uint256"
                }
            ],
            "outputs": [
                {
                    "name": "",
                    "type": "string",
                    "internalType": "string"
                }
            ],
            "stateMutability": "view"
        },
        {
            "type": "function",
            "name": "transferFrom",
            "inputs": [
                {
                    "name": "from",
                    "type": "address",
                    "internalType": "address"
                },
                {
                    "name": "to",
                    "type": "address",
                    "internalType": "address"
                },
                {
                    "name": "tokenId",
                    "type": "uint256",
                    "internalType": "uint256"
                }
            ],
            "outputs": [],
            "stateMutability": "nonpayable"
        },
        {
            "type": "function",
            "name": "transferOwnership",
            "inputs": [
                {
                    "name": "newOwner",
                    "type": "address",
                    "internalType": "address"
                }
            ],
            "outputs": [],
            "stateMutability": "nonpayable"
        },
        {
            "type": "event",
            "name": "Approval",
            "inputs": [
                {
                    "name": "owner",
                    "type": "address",
                    "indexed": true,
                    "internalType": "address"
                },
                {
                    "name": "approved",
                    "type": "address",
                    "indexed": true,
                    "internalType": "address"
                },
                {
                    "name": "tokenId",
                    "type": "uint256",
                    "indexed": true,
                    "internalType": "uint256"
                }
            ],
            "anonymous": false
        },
        {
            "type": "event",
            "name": "ApprovalForAll",
            "inputs": [
                {
                    "name": "owner",
                    "type": "address",
                    "indexed": true,
                    "internalType": "address"
                },
                {
                    "name": "operator",
                    "type": "address",
                    "indexed": true,
                    "internalType": "address"
                },
                {
                    "name": "approved",
                    "type": "bool",
                    "indexed": false,
                    "internalType": "bool"
                }
            ],
            "anonymous": false
        },
        {
            "type": "event",
            "name": "OwnershipTransferred",
            "inputs": [
                {
                    "name": "previousOwner",
                    "type": "address",
                    "indexed": true,
                    "internalType": "address"
                },
                {
                    "name": "newOwner",
                    "type": "address",
                    "indexed": true,
                    "internalType": "address"
                }
            ],
            "anonymous": false
        },
        {
            "type": "event",
            "name": "Transfer",
            "inputs": [
                {
                    "name": "from",
                    "type": "address",
                    "indexed": true,
                    "internalType": "address"
                },
                {
                    "name": "to",
                    "type": "address",
                    "indexed": true,
                    "internalType": "address"
                },
                {
                    "name": "tokenId",
                    "type": "uint256",
                    "indexed": true,
                    "internalType": "uint256"
                }
            ],
            "anonymous": false
        },
        {
            "type": "error",
            "name": "CallerIsBlackListed",
            "inputs": [
                {
                    "name": "caller",
                    "type": "address",
                    "internalType": "address"
                }
            ]
        },
        {
            "type": "error",
            "name": "ERC721IncorrectOwner",
            "inputs": [
                {
                    "name": "sender",
                    "type": "address",
                    "internalType": "address"
                },
                {
                    "name": "tokenId",
                    "type": "uint256",
                    "internalType": "uint256"
                },
                {
                    "name": "owner",
                    "type": "address",
                    "internalType": "address"
                }
            ]
        },
        {
            "type": "error",
            "name": "ERC721InsufficientApproval",
            "inputs": [
                {
                    "name": "operator",
                    "type": "address",
                    "internalType": "address"
                },
                {
                    "name": "tokenId",
                    "type": "uint256",
                    "internalType": "uint256"
                }
            ]
        },
        {
            "type": "error",
            "name": "ERC721InvalidApprover",
            "inputs": [
                {
                    "name": "approver",
                    "type": "address",
                    "internalType": "address"
                }
            ]
        },
        {
            "type": "error",
            "name": "ERC721InvalidOperator",
            "inputs": [
                {
                    "name": "operator",
                    "type": "address",
                    "internalType": "address"
                }
            ]
        },
        {
            "type": "error",
            "name": "ERC721InvalidOwner",
            "inputs": [
                {
                    "name": "owner",
                    "type": "address",
                    "internalType": "address"
                }
            ]
        },
        {
            "type": "error",
            "name": "ERC721InvalidReceiver",
            "inputs": [
                {
                    "name": "receiver",
                    "type": "address",
                    "internalType": "address"
                }
            ]
        },
        {
            "type": "error",
            "name": "ERC721InvalidSender",
            "inputs": [
                {
                    "name": "sender",
                    "type": "address",
                    "internalType": "address"
                }
            ]
        },
        {
            "type": "error",
            "name": "ERC721NonexistentToken",
            "inputs": [
                {
                    "name": "tokenId",
                    "type": "uint256",
                    "internalType": "uint256"
                }
            ]
        },
        {
            "type": "error",
            "name": "OwnableInvalidOwner",
            "inputs": [
                {
                    "name": "owner",
                    "type": "address",
                    "internalType": "address"
                }
            ]
        },
        {
            "type": "error",
            "name": "OwnableUnauthorizedAccount",
            "inputs": [
                {
                    "name": "account",
                    "type": "address",
                    "internalType": "address"
                }
            ]
        }
    ],
    "bytecode": {
        "object": "0x608060405234801561001057600080fd5b503360405180604001604052806012815260200171457468657265616c2041727469666163747360701b815250604051806040016040528060048152602001634554484160e01b815250816000908161006991906107ec565b50600161007682826107ec565b5050506001600160a01b0381166100a857604051631e4fbdf760e01b8152600060048201526024015b60405180910390fd5b6100b1816100c4565b5060006007556100bf610116565b610973565b600680546001600160a01b038381166001600160a01b0319831681179093556040519116919082907f8be0079c531659141344cd1fd0a4f28419497f9722a3daafe3b4186f6b6457e090600090a35050565b610139600a6040518060600160405280602e8152602001611b9b602e91396101c7565b61015c600b6040518060600160405280602e8152602001611bf7602e91396101c7565b61017f600c6040518060600160405280602e8152602001611c25602e91396101c7565b6101a2600d6040518060600160405280602e8152602001611bc9602e91396101c7565b6101c5600e6040518060600160405280602e8152602001611b6d602e91396101c7565b565b3360009081526009602052604090205460ff16156101fa5760405163a21fa3bd60e01b815233600482015260240161009f565b600754600090815260086020526040902061021582826107ec565b506102288260075461024160201b60201c565b60078054906000610238836108aa565b91905055505050565b61026182826040518060200160405280600081525061026560201b60201c565b5050565b61026f8383610281565b61027c60008484846102e5565b505050565b6001600160a01b0382166102ab57604051633250574960e11b81526000600482015260240161009f565b60006102b883838361040f565b90506001600160a01b0381161561027c576040516339e3563760e11b81526000600482015260240161009f565b6001600160a01b0383163b1561040957604051630a85bd0160e11b81526001600160a01b0384169063150b7a02906103279033908890879087906004016108d1565b6020604051808303816000875af1925050508015610362575060408051601f3d908101601f1916820190925261035f91810190610942565b60015b6103cb573d808015610390576040519150601f19603f3d011682016040523d82523d6000602084013e610395565b606091505b5080516000036103c357604051633250574960e11b81526001600160a01b038516600482015260240161009f565b805181602001fd5b6001600160e01b03198116630a85bd0160e11b1461040757604051633250574960e11b81526001600160a01b038516600482015260240161009f565b505b50505050565b6000828152600260205260408120546001600160a01b039081169083161561043c5761043c818486610507565b6001600160a01b0381161561047957610458600085818061056b565b6001600160a01b038116600090815260036020526040902080546000190190555b6001600160a01b038516156104a8576001600160a01b0385166000908152600360205260409020805460010190555b60008481526002602052604080822080546001600160a01b0319166001600160a01b0389811691821790925591518793918516917fddf252ad1be2c89b69c2b068fc378daa952ba7f163c4a11628f55a4df523b3ef91a4949350505050565b610512838383610690565b61027c576001600160a01b03831661054057604051637e27328960e01b81526004810182905260240161009f565b60405163177e802f60e01b81526001600160a01b03831660048201526024810182905260440161009f565b808061057f57506001600160a01b03821615155b1561066057600061058f84610716565b90506001600160a01b038316158015906105bb5750826001600160a01b0316816001600160a01b031614155b80156105ed57506001600160a01b0380821660009081526005602090815260408083209387168352929052205460ff16155b156106165760405163a9fbf51f60e01b81526001600160a01b038416600482015260240161009f565b811561065e5783856001600160a01b0316826001600160a01b03167f8c5be1e5ebec7d5bd14f71427d1e84f3dd0314c0f7b2291e5b200ac8c7c3b92560405160405180910390a45b505b5050600090815260046020526040902080546001600160a01b0319166001600160a01b0392909216919091179055565b60006001600160a01b0383161580159061070e5750826001600160a01b0316846001600160a01b031614806106ea57506001600160a01b0380851660009081526005602090815260408083209387168352929052205460ff165b8061070e57506000828152600460205260409020546001600160a01b038481169116145b949350505050565b6000818152600260205260408120546001600160a01b03168061074f57604051637e27328960e01b81526004810184905260240161009f565b92915050565b634e487b7160e01b600052604160045260246000fd5b600181811c9082168061077f57607f821691505b60208210810361079f57634e487b7160e01b600052602260045260246000fd5b50919050565b601f82111561027c57806000526020600020601f840160051c810160208510156107cc5750805b601f840160051c820191505b8181101561040757600081556001016107d8565b81516001600160401b0381111561080557610805610755565b61081981610813845461076b565b846107a5565b6020601f82116001811461084d57600083156108355750848201515b600019600385901b1c1916600184901b178455610407565b600084815260208120601f198516915b8281101561087d578785015182556020948501946001909201910161085d565b508482101561089b5786840151600019600387901b60f8161c191681555b50505050600190811b01905550565b6000600182016108ca57634e487b7160e01b600052601160045260246000fd5b5060010190565b6001600160a01b03858116825284166020820152604081018390526080606082018190528251908201819052600090815b8181101561091f57602081860181015160a0868401015201610902565b50600060a0828501015260a0601f19601f83011684010191505095945050505050565b60006020828403121561095457600080fd5b81516001600160e01b03198116811461096c57600080fd5b9392505050565b6111eb806109826000396000f3fe608060405234801561001057600080fd5b50600436106101215760003560e01c80636352211e116100ad578063a22cb46511610071578063a22cb46514610270578063b88d4fde14610283578063c87b56dd14610296578063e985e9c5146102a9578063f2fde38b146102bc57600080fd5b80636352211e1461021b57806370a082311461022e578063715018a61461024f5780638da5cb5b1461025757806395d89b411461026857600080fd5b806311f87b19116100f457806311f87b19146101a357806323b872dd146101b6578063417c73a7146101c957806342842e0e146101dc57806345e1f743146101ef57600080fd5b806301ffc9a71461012657806306fdde031461014e578063081812fc14610163578063095ea7b31461018e575b600080fd5b610139610134366004610ce3565b6102cf565b60405190151581526020015b60405180910390f35b610156610321565b6040516101459190610d4d565b610176610171366004610d60565b6103b3565b6040516001600160a01b039091168152602001610145565b6101a161019c366004610d95565b6103dc565b005b6101a16101b1366004610e4f565b6103eb565b6101a16101c4366004610eb1565b610464565b6101a16101d7366004610eee565b6104ef565b6101a16101ea366004610eb1565b61051b565b6101396101fd366004610eee565b6001600160a01b031660009081526009602052604090205460ff1690565b610176610229366004610d60565b61053b565b61024161023c366004610eee565b610546565b604051908152602001610145565b6101a161058e565b6006546001600160a01b0316610176565b6101566105a2565b6101a161027e366004610f09565b6105b1565b6101a1610291366004610f45565b6105bc565b6101566102a4366004610d60565b6105d3565b6101396102b7366004610fc1565b610675565b6101a16102ca366004610eee565b6106a3565b60006001600160e01b031982166380ac58cd60e01b148061030057506001600160e01b03198216635b5e139f60e01b145b8061031b57506301ffc9a760e01b6001600160e01b03198316145b92915050565b60606000805461033090610ff4565b80601f016020809104026020016040519081016040528092919081815260200182805461035c90610ff4565b80156103a95780601f1061037e576101008083540402835291602001916103a9565b820191906000526020600020905b81548152906001019060200180831161038c57829003601f168201915b5050505050905090565b60006103be826106e1565b506000828152600460205260409020546001600160a01b031661031b565b6103e782823361071a565b5050565b3360009081526009602052604090205460ff16156104235760405163a21fa3bd60e01b81523360048201526024015b60405180910390fd5b600754600090815260086020526040902061043e8282611075565b5061044b82600754610727565b6007805490600061045b83611134565b91905055505050565b6001600160a01b03821661048e57604051633250574960e11b81526000600482015260240161041a565b600061049b838333610741565b9050836001600160a01b0316816001600160a01b0316146104e9576040516364283d7b60e01b81526001600160a01b038086166004830152602482018490528216604482015260640161041a565b50505050565b6104f761083a565b6001600160a01b03166000908152600960205260409020805460ff19166001179055565b610536838383604051806020016040528060008152506105bc565b505050565b600061031b826106e1565b60006001600160a01b038216610572576040516322718ad960e21b81526000600482015260240161041a565b506001600160a01b031660009081526003602052604090205490565b61059661083a565b6105a06000610867565b565b60606001805461033090610ff4565b6103e73383836108b9565b6105c7848484610464565b6104e984848484610958565b60008181526008602052604090208054606091906105f090610ff4565b80601f016020809104026020016040519081016040528092919081815260200182805461061c90610ff4565b80156106695780601f1061063e57610100808354040283529160200191610669565b820191906000526020600020905b81548152906001019060200180831161064c57829003601f168201915b50505050509050919050565b6001600160a01b03918216600090815260056020908152604080832093909416825291909152205460ff1690565b6106ab61083a565b6001600160a01b0381166106d557604051631e4fbdf760e01b81526000600482015260240161041a565b6106de81610867565b50565b6000818152600260205260408120546001600160a01b03168061031b57604051637e27328960e01b81526004810184905260240161041a565b6105368383836001610a81565b6103e7828260405180602001604052806000815250610b87565b6000828152600260205260408120546001600160a01b039081169083161561076e5761076e818486610b9e565b6001600160a01b038116156107ac5761078b600085600080610a81565b6001600160a01b038116600090815260036020526040902080546000190190555b6001600160a01b038516156107db576001600160a01b0385166000908152600360205260409020805460010190555b60008481526002602052604080822080546001600160a01b0319166001600160a01b0389811691821790925591518793918516917fddf252ad1be2c89b69c2b068fc378daa952ba7f163c4a11628f55a4df523b3ef91a4949350505050565b6006546001600160a01b031633146105a05760405163118cdaa760e01b815233600482015260240161041a565b600680546001600160a01b038381166001600160a01b0319831681179093556040519116919082907f8be0079c531659141344cd1fd0a4f28419497f9722a3daafe3b4186f6b6457e090600090a35050565b6001600160a01b0382166108eb57604051630b61174360e31b81526001600160a01b038316600482015260240161041a565b6001600160a01b03838116600081815260056020908152604080832094871680845294825291829020805460ff191686151590811790915591519182527f17307eab39ab6107e8899845ad3d59bd9653f200f220920489ca2b5937696c31910160405180910390a3505050565b6001600160a01b0383163b156104e957604051630a85bd0160e11b81526001600160a01b0384169063150b7a029061099a90339088908790879060040161115b565b6020604051808303816000875af19250505080156109d5575060408051601f3d908101601f191682019092526109d291810190611198565b60015b610a3e573d808015610a03576040519150601f19603f3d011682016040523d82523d6000602084013e610a08565b606091505b508051600003610a3657604051633250574960e11b81526001600160a01b038516600482015260240161041a565b805181602001fd5b6001600160e01b03198116630a85bd0160e11b14610a7a57604051633250574960e11b81526001600160a01b038516600482015260240161041a565b5050505050565b8080610a9557506001600160a01b03821615155b15610b57576000610aa5846106e1565b90506001600160a01b03831615801590610ad15750826001600160a01b0316816001600160a01b031614155b8015610ae45750610ae28184610675565b155b15610b0d5760405163a9fbf51f60e01b81526001600160a01b038416600482015260240161041a565b8115610b555783856001600160a01b0316826001600160a01b03167f8c5be1e5ebec7d5bd14f71427d1e84f3dd0314c0f7b2291e5b200ac8c7c3b92560405160405180910390a45b505b5050600090815260046020526040902080546001600160a01b0319166001600160a01b0392909216919091179055565b610b918383610c02565b6105366000848484610958565b610ba9838383610c67565b610536576001600160a01b038316610bd757604051637e27328960e01b81526004810182905260240161041a565b60405163177e802f60e01b81526001600160a01b03831660048201526024810182905260440161041a565b6001600160a01b038216610c2c57604051633250574960e11b81526000600482015260240161041a565b6000610c3a83836000610741565b90506001600160a01b03811615610536576040516339e3563760e11b81526000600482015260240161041a565b60006001600160a01b03831615801590610cc55750826001600160a01b0316846001600160a01b03161480610ca15750610ca18484610675565b80610cc557506000828152600460205260409020546001600160a01b038481169116145b949350505050565b6001600160e01b0319811681146106de57600080fd5b600060208284031215610cf557600080fd5b8135610d0081610ccd565b9392505050565b6000815180845260005b81811015610d2d57602081850181015186830182015201610d11565b506000602082860101526020601f19601f83011685010191505092915050565b602081526000610d006020830184610d07565b600060208284031215610d7257600080fd5b5035919050565b80356001600160a01b0381168114610d9057600080fd5b919050565b60008060408385031215610da857600080fd5b610db183610d79565b946020939093013593505050565b634e487b7160e01b600052604160045260246000fd5b60008067ffffffffffffffff841115610df057610df0610dbf565b50604051601f19601f85018116603f0116810181811067ffffffffffffffff82111715610e1f57610e1f610dbf565b604052838152905080828401851015610e3757600080fd5b83836020830137600060208583010152509392505050565b60008060408385031215610e6257600080fd5b610e6b83610d79565b9150602083013567ffffffffffffffff811115610e8757600080fd5b8301601f81018513610e9857600080fd5b610ea785823560208401610dd5565b9150509250929050565b600080600060608486031215610ec657600080fd5b610ecf84610d79565b9250610edd60208501610d79565b929592945050506040919091013590565b600060208284031215610f0057600080fd5b610d0082610d79565b60008060408385031215610f1c57600080fd5b610f2583610d79565b915060208301358015158114610f3a57600080fd5b809150509250929050565b60008060008060808587031215610f5b57600080fd5b610f6485610d79565b9350610f7260208601610d79565b925060408501359150606085013567ffffffffffffffff811115610f9557600080fd5b8501601f81018713610fa657600080fd5b610fb587823560208401610dd5565b91505092959194509250565b60008060408385031215610fd457600080fd5b610fdd83610d79565b9150610feb60208401610d79565b90509250929050565b600181811c9082168061100857607f821691505b60208210810361102857634e487b7160e01b600052602260045260246000fd5b50919050565b601f82111561053657806000526020600020601f840160051c810160208510156110555750805b601f840160051c820191505b81811015610a7a5760008155600101611061565b815167ffffffffffffffff81111561108f5761108f610dbf565b6110a38161109d8454610ff4565b8461102e565b6020601f8211600181146110d757600083156110bf5750848201515b600019600385901b1c1916600184901b178455610a7a565b600084815260208120601f198516915b8281101561110757878501518255602094850194600190920191016110e7565b50848210156111255786840151600019600387901b60f8161c191681555b50505050600190811b01905550565b60006001820161115457634e487b7160e01b600052601160045260246000fd5b5060010190565b6001600160a01b038581168252841660208201526040810183905260806060820181905260009061118e90830184610d07565b9695505050505050565b6000602082840312156111aa57600080fd5b8151610d0081610ccd56fea264697066735822122006428604a268b064aef5f11fc62927d137aceb24527f8c7e30552f88bb87c6af64736f6c634300081a0033516d56613255754451545457374a6137686b36754e696842336d666f53565a58586d654e6847345144754248736f516d5373595278334c7044416231475a516d377a5a314175485a6a6662506b44364a3773397234317875316d6638516d576f4d57747a78683756375a74584550504a635037436959644d543652527876716855754134724248393644516d56735538465a5048614d5079387853536f796d536e683662416645763363345237643571504e565a6261686d516d57484362334b423450346932746e6d4e47555038473247333144484a36777a4a4358555851426a6335646f42",
        "linkReferences": {}
    },
    "methodIdentifiers": {
        "addToBlackList(address)": "417c73a7",
        "approve(address,uint256)": "095ea7b3",
        "balanceOf(address)": "70a08231",
        "getApproved(uint256)": "081812fc",
        "isAddressBlackListed(address)": "45e1f743",
        "isApprovedForAll(address,address)": "e985e9c5",
        "mintNft(address,string)": "11f87b19",
        "name()": "06fdde03",
        "owner()": "8da5cb5b",
        "ownerOf(uint256)": "6352211e",
        "renounceOwnership()": "715018a6",
        "safeTransferFrom(address,address,uint256)": "42842e0e",
        "safeTransferFrom(address,address,uint256,bytes)": "b88d4fde",
        "setApprovalForAll(address,bool)": "a22cb465",
        "supportsInterface(bytes4)": "01ffc9a7",
        "symbol()": "95d89b41",
        "tokenURI(uint256)": "c87b56dd",
        "transferFrom(address,address,uint256)": "23b872dd",
        "transferOwnership(address)": "f2fde38b"
    },
    "id": 12
}