{
    "abi": [
        {
            "type": "constructor",
            "inputs": [],
            "stateMutability": "nonpayable"
        },
        {
            "type": "function",
            "name": "buyNft",
            "inputs": [
                {
                    "name": "nftContract",
                    "type": "address",
                    "internalType": "address"
                },
                {
                    "name": "tokenId",
                    "type": "uint256",
                    "internalType": "uint256"
                }
            ],
            "outputs": [],
            "stateMutability": "payable"
        },
        {
            "type": "function",
            "name": "getListing",
            "inputs": [
                {
                    "name": "nftContract",
                    "type": "address",
                    "internalType": "address"
                },
                {
                    "name": "tokenId",
                    "type": "uint256",
                    "internalType": "uint256"
                }
            ],
            "outputs": [
                {
                    "name": "",
                    "type": "tuple",
                    "internalType": "struct NftMarketplace.Listing",
                    "components": [
                        {
                            "name": "seller",
                            "type": "address",
                            "internalType": "address"
                        },
                        {
                            "name": "price",
                            "type": "uint256",
                            "internalType": "uint256"
                        }
                    ]
                }
            ],
            "stateMutability": "view"
        },
        {
            "type": "function",
            "name": "listNft",
            "inputs": [
                {
                    "name": "nftContract",
                    "type": "address",
                    "internalType": "address"
                },
                {
                    "name": "tokenId",
                    "type": "uint256",
                    "internalType": "uint256"
                },
                {
                    "name": "price",
                    "type": "uint256",
                    "internalType": "uint256"
                }
            ],
            "outputs": [],
            "stateMutability": "nonpayable"
        },
        {
            "type": "function",
            "name": "listings",
            "inputs": [
                {
                    "name": "",
                    "type": "address",
                    "internalType": "address"
                },
                {
                    "name": "",
                    "type": "uint256",
                    "internalType": "uint256"
                }
            ],
            "outputs": [
                {
                    "name": "seller",
                    "type": "address",
                    "internalType": "address"
                },
                {
                    "name": "price",
                    "type": "uint256",
                    "internalType": "uint256"
                }
            ],
            "stateMutability": "view"
        },
        {
            "type": "event",
            "name": "NftBought",
            "inputs": [
                {
                    "name": "nftContract",
                    "type": "address",
                    "indexed": true,
                    "internalType": "address"
                },
                {
                    "name": "tokenId",
                    "type": "uint256",
                    "indexed": true,
                    "internalType": "uint256"
                },
                {
                    "name": "buyer",
                    "type": "address",
                    "indexed": false,
                    "internalType": "address"
                },
                {
                    "name": "price",
                    "type": "uint256",
                    "indexed": false,
                    "internalType": "uint256"
                }
            ],
            "anonymous": false
        },
        {
            "type": "event",
            "name": "NftListed",
            "inputs": [
                {
                    "name": "nftContract",
                    "type": "address",
                    "indexed": true,
                    "internalType": "address"
                },
                {
                    "name": "tokenId",
                    "type": "uint256",
                    "indexed": true,
                    "internalType": "uint256"
                },
                {
                    "name": "seller",
                    "type": "address",
                    "indexed": false,
                    "internalType": "address"
                },
                {
                    "name": "price",
                    "type": "uint256",
                    "indexed": false,
                    "internalType": "uint256"
                }
            ],
            "anonymous": false
        },
        {
            "type": "error",
            "name": "NftMarketplace__ErrorPayingOutTheSeller",
            "inputs": []
        },
        {
            "type": "error",
            "name": "NftMarketplace__IncorrectBuyingPrice",
            "inputs": []
        },
        {
            "type": "error",
            "name": "NftMarketplace__NftListerIsNotTheOwner",
            "inputs": []
        },
        {
            "type": "error",
            "name": "NftMarketplace__NotApproved",
            "inputs": []
        }
    ],
    "bytecode": {
        "object": "0x6080604052348015600f57600080fd5b506105ab8061001f6000396000f3fe60806040526004361061003e5760003560e01c806207df30146100435780634ddf4f8f146100af57806388700d1c146100c4578063c922b17c14610152575b600080fd5b34801561004f57600080fd5b5061008b61005e3660046104f0565b6000602081815292815260408082209093529081522080546001909101546001600160a01b039091169082565b604080516001600160a01b0390931683526020830191909152015b60405180910390f35b6100c26100bd3660046104f0565b610172565b005b3480156100d057600080fd5b5061012e6100df3660046104f0565b604080518082018252600080825260209182018190526001600160a01b039485168152808252828120938152928152918190208151808301909252805490931681526001909201549082015290565b6040805182516001600160a01b0316815260209283015192810192909252016100a6565b34801561015e57600080fd5b506100c261016d36600461051c565b61032a565b6001600160a01b038083166000908152602081815260408083208584528252918290208251808401909352805490931682526001909201549181018290529034146101d05760405163c0e12ddb60e01b815260040160405180910390fd5b6001600160a01b0383811660008181526020818152604080832087845290915280822080546001600160a01b03191681556001019190915583519051632142170760e11b81529216600483015233602483015260448201849052906342842e0e90606401600060405180830381600087803b15801561024e57600080fd5b505af1158015610262573d6000803e3d6000fd5b50505050600081600001516001600160a01b03163460405160006040518083038185875af1925050503d80600081146102b7576040519150601f19603f3d011682016040523d82523d6000602084013e6102bc565b606091505b50509050806102de576040516326868cdd60e21b815260040160405180910390fd5b6040805133815234602082015284916001600160a01b038716917fbd9ca37d39bd82cad4a35d9618ccc46b7055d04e211f817b2e6dae1267a02f7091015b60405180910390a350505050565b6040516331a9108f60e11b815260048101839052839033906001600160a01b03831690636352211e90602401602060405180830381865afa158015610373573d6000803e3d6000fd5b505050506040513d601f19601f820116820180604052508101906103979190610551565b6001600160a01b0316146103be576040516315fa33ff60e11b815260040160405180910390fd5b60405163020604bf60e21b81526004810184905230906001600160a01b0383169063081812fc90602401602060405180830381865afa158015610405573d6000803e3d6000fd5b505050506040513d601f19601f820116820180604052508101906104299190610551565b6001600160a01b031614610450576040516340c4b19f60e11b815260040160405180910390fd5b6040805180820182523380825260208083018681526001600160a01b0389811660008181528085528781208b82528552879020955186546001600160a01b031916921691909117855590516001909401939093558351918252810185905285927fe77c968bf19b7719db31a77b3b1392ff896ba9e80d49e57381106452c9d7cc26910161031c565b6001600160a01b03811681146104ed57600080fd5b50565b6000806040838503121561050357600080fd5b823561050e816104d8565b946020939093013593505050565b60008060006060848603121561053157600080fd5b833561053c816104d8565b95602085013595506040909401359392505050565b60006020828403121561056357600080fd5b815161056e816104d8565b939250505056fea26469706673582212203597ac7f609f65fe882f76bdd64b0636cc2fde8f9787c79f8f8b92e6dca7128664736f6c634300081a0033",
        "linkReferences": {}
    },
    "methodIdentifiers": {
        "buyNft(address,uint256)": "4ddf4f8f",
        "getListing(address,uint256)": "88700d1c",
        "listNft(address,uint256,uint256)": "c922b17c",
        "listings(address,uint256)": "0007df30"
    },
    "id": 34
}